:020000040000FA
:06000000B0EF01F0120058
:020006000000F8
:08000800D9CFE6FFE1CFD9FFDB
:10001000040EE126DE6ADD6ADECF10F0DDCF11F0DE
:10002000FD0EDBCF12F0FE0EDBCF13F01250105C92
:10003000135011581AE2020EDB6A030EDB6A020E3D
:10004000DBCF10F0030EDBCF11F0A50E105C000E1D
:10005000115806E2020EDB2A030E01E3DB2AEFD77A
:10006000DF2A010E01E3DB2AD7D7040EE15C02E2AE
:10007000E16AE552E16EE552E7CFD9FF1200D9CF30
:10008000E6FFE1CFD9FF0C0EE126090EDF6EDE524E
:100090000C0EDD6E060EF36E020EF3CFDBFF030EC9
:1000A000F36EF3CFDBFFF36E040EF3CFDBFF060E30
:1000B000F36E050EF3CFDBFF0C0EF36E060EF3CFDF
:1000C000DBFF090EF36E070EF3CFDBFFB40EF36E0A
:1000D000080EF3CFDBFF090EDB6A936A816A0A0E12
:1000E000DB6A0B0EDB6A0A0EDBCF10F00B0EDBCFE8
:1000F00011F0080EDBCF12F0090EDBCF13F0115018
:100100001318E8AE02D0133404D01250105C135010
:1001100011582BE2D9CF10F0DACF11F00A0EDBCF55
:1001200012F00B0EDBCF13F0040E0D6E0E6A12C030
:1001300008F013C009F064EC01F004C012F005C02F
:1001400013F010501224E96E11501320EA6EEF5094
:10015000816E640EE66EE66A57DFE552E5520A0EDE
:10016000DB2A0B0E01E3DB2ABED7E80EE66E030E98
:10017000E66E4ADFE552E5520A0EDB6A0B0EDB6AD9
:100180000A0EDBCF10F00B0EDBCF11F0080EDBCF29
:1001900012F0090EDBCF13F011501318E8AE02D0A5
:1001A000133404D01250105C135011582CE2D95063
:1001B000040F106EDACF11F00A0EDBCF12F00B0E27
:1001C000DBCF13F0040E0D6E0E6A12C008F013C0E0
:1001D00009F064EC01F004C012F005C013F01050F7
:1001E0001224E96E11501320EA6EEF50816E640EF6
:1001F000E66EE66A09DFE552E5520A0EDB2A0B0ECF
:1002000001E3DB2ABDD7E80EE66E030EE66EFCDEE8
:10021000E552E55264D70C0EE15C02E2E16AE55278
:0A022000E16EE552E7CFD9FF1200AE
:06022A00060EF66E000E48
:10023000F76E000EF86E00010900F550656F0900B9
:10024000F550666F03E1656701D03DD00900F550B8
:10025000606F0900F550616F0900F550626F090089
:100260000900F550E96E0900F550EA6E0900090031
:100270000900F550636F0900F550646F090009002B
:10028000F6CF67F0F7CF68F0F8CF69F060C0F6FFFF
:1002900061C0F7FF62C0F8FF0001635302E16453DD
:1002A00007E00900F550EE6E6307F8E26407F9D73E
:1002B00067C0F6FF68C0F7FF69C0F8FF0001650777
:0802C000000E665BBFD71200BF
:0802C800006A0EAE6DEF01F0BB
:1002D0000D6C0E1EE86A0E22001E09AE75EF01F0CD
:1002E000086C091EE86A0922001E8AEC01F009BEAA
:1002F00085EF01F000AE000C086C091EE86A0922C7
:10030000046C051EE86A0522000C00BE7CEF01F0BB
:040310000188FF0C55
:0C031400056A046A100EE76ED8900836E7
:100320000936043605360D50045C0E50055805E3B9
:100330000D50045E0E50055A082AE72EF0D7120021
:10034000000EF36E00EE00F0080E01D81200EA6015
:1003500002D0EE6AFCD7F350E9601200EE6AFCD7D7
:1003600013EE00F023EE00F0F86A019C15EC01F0AA
:0C037000BEEC01F03FEC00F0FBD71200E7
:02037C0012006D
:020000040030CA
:010001000CF2
:010003001EDE
:010006008178
:00000001FF
