:020000040000FA
:06000000F3EF08F012000E
:06100000F3EF08F01200FE
:02102A000000C4
:04102C0078D8040E5E
:10103000E126DE6ADD6ADECF00F0DDCF01F0FD0ED5
:10104000DBCF02F0FE0EDBCF03F00250005C03505A
:1010500001581AE2020EDB6A030EDB6A020EDBCFD6
:1010600000F0030EDBCF01F0C60E005C020E01584B
:1010700006E2020EDB2A030EF1E3DB2AEFD7DF2ABA
:10108000010ED9E3DB2AD7D7040EE15C02E2E16A64
:10109000E552E16EE552E7CFD9FF120040D8FE0ECF
:1010A000DB50BE6EE552E7CFD9FF120038D8E652CA
:1010B0000F0EC16E93909392949481808192FA0E58
:1010C000CB6E0C0EBD6EBE6A060ECA6EDF6ADF50B6
:1010D000006E016A013404E20050F008000E015471
:1010E00006E3DFCFE6FF11D83C0EDF26F0D7F00E87
:1010F000DF6EDF50000806E2DFCFE6FF06D83C0EC9
:10110000DF5EF7D7E66A01D8E1D7C8DFE552F40E13
:10111000E66E010EE66E8ADFE552E5521200D9CF87
:08112000E6FFE1CFD9FF120048
:081128002A0EF66E100EF76EA0
:10113000000EF86E00010900F550656F0900F550CA
:10114000666F03E1656701D03DD00900F550606F1F
:101150000900F550616F0900F550626F0900090040
:10116000F550E96E0900F550EA6E09000900090022
:10117000F550636F0900F550646F09000900F6CF60
:1011800067F0F7CF68F0F8CF69F060C0F6FF61C094
:10119000F7FF62C0F8FF0001635302E1645307E008
:1011A0000900F550EE6E6307F8E26407F9D767C0EF
:1011B000F6FF68C0F7FF69C0F8FF00016507000E81
:0611C000665BBFD71200C0
:0A11C600000EF36E00EE00F0080EBC
:1011D00001D81200EA6002D0EE6AFCD7F350E96051
:0611E0001200EE6AFCD7CC
:0A11E60013EE00F023EE00F0F86AAB
:1011F000059C94EC08F001EC09F056EC08F0FBD7E4
:021200001200DA
:021202001200D8
:00000001FF
