:020000040000FA
:06000000A6EF09F012005A
:06100000A6EF09F012004A
:02102A000000C4
:04102C00FED8040ED8
:10103000E126DE6ADD6ADECF14F0DDCF15F0FD0EAD
:10104000DBCF16F0FE0EDBCF17F01650145C1750F6
:1010500015581AE2020EDB6A030EDB6A020EDBCFC2
:1010600014F0030EDBCF15F0C60E145C020E1558FB
:1010700006E2020EDB2A030EF1E3DB2AEFD7DF2ABA
:10108000010ED9E3DB2AD7D7040EE15C02E2E16A64
:10109000E552E16EE552E7CFD9FF1200C6D8B0D8CD
:1010A000D89015321432D890153214321450BE6EC6
:1010B000A7D8D89015321432010E1414E8B0BD8AA6
:1010C000E8A0BD9A010EE76E9BD8E7501416156A8A
:1010D0001450E8B0BD88E8A0BD98E552E7CFD9FF2D
:1010E0001200A3D80C0EE126960EDE6EDD6A2C0EE1
:1010F000F36E020EF3CFDBFF010EF36E030EF3CFA0
:10110000DBFFC20EF36E040EF3CFDBFF010EF36EB6
:10111000050EF3CFDBFF580EF36E060EF3CFDBFFA9
:10112000020EF36E070EF3CFDBFFEE0EF36E080E2A
:10113000F3CFDBFF020EF36E090EF3CFDBFF0F0ED2
:10114000C16E93909392949481808192BA0ECB6EEB
:101150000C0EBD6E5CD8060ECA6E0A0EDB6A0B0E54
:10116000DB6A5CD8D890155004E6050E145C000EBE
:10117000155806E220D8DB2A0B0EF3E3DB2AF1D761
:10118000040EF36E0A0EF3CFDBFF0B0EDB6A46D8BC
:101190000001800E151406E10ED8DB060B0EF7E2F7
:1011A000DB06F5D734D8E80EE66E030EE66E3EDFBA
:1011B000E552E552D2D7D9CF14F0DACF15F0020EAE
:1011C000086E096A0A0EDBCF0DF00B0EDBCF0EF0B6
:1011D00069EC09F014500624E96E15500720EA6EF8
:1011E000EECFE6FFEFCFE6FF59DFE552E552DC0E2A
:1011F000E66E050EE66E1ADFE552E5520A0E1200A3
:10120000FD0EDBCF14F0FE0EDBCF15F01200000E4A
:10121000E66EE66A43DFE552E55212000A0EDBCFC6
:1012200014F00B0EDBCF15F01200D9CFE6FFE1CFA3
:04123000D9FF1200D0
:0C1234002A0EF66E100EF76E000EF86E1B
:1012400000010900F550656F0900F550666F03E174
:10125000656701D03DD00900F550606F0900F55079
:10126000616F0900F550626F09000900F550E96EE1
:101270000900F550EA6E090009000900F550636F96
:101280000900F550646F09000900F6CF67F0F7CF49
:1012900068F0F8CF69F060C0F6FF61C0F7FF62C088
:1012A000F8FF0001635302E1645307E00900F550C1
:1012B000EE6E6307F8E26407F9D767C0F6FF68C00F
:1012C000F7FF69C0F8FF00016507000E665BBFD736
:0212D00012000A
:0E12D20009C013F008C012F008500D02F4CF4E
:1012E00007F0F3CF06F009500E02F4CF09F0F3CF68
:1012F00008F00D02F3500726F4500822E86A09228C
:1013000012500E02F3500726F4500822E86A092210
:101310000EAE8FEF09F01250085E1350095A13AE4B
:0C132000000C0D50085E0E50095A000C25
:04132C00000EF36E4E
:1013300000EE00F0080E01D81200EA6002D0EE6A5A
:0C134000FCD7F350E9601200EE6AFCD705
:04134C0013EE00F0AC
:1013500023EE00F0F86A019C1AEC09F0B4EC09F0F5
:0813600071EC08F0FBD712004C
:02136800120071
:00000001FF
