:020000040000FA
:06000000BDEF00F012004C
:020006000000F8
:08000800D9CFE6FFE1CFD9FFDB
:10001000040EE126DE6ADD6ADECF00F0DDCF01F0FE
:10002000FD0EDBCF02F0FE0EDBCF03F00250005CD2
:10003000035001581AE2020EDB6A030EDB6A020E5D
:10004000DBCF00F0030EDBCF01F0A50E005C000E4D
:10005000015806E2020EDB2A030E01E3DB2AEFD78A
:10006000DF2A010E01E3DB2AD7D7040EE15C02E2AE
:10007000E16AE552E16EE552E7CFD9FF1200936ADB
:10008000816A010E816E880EE66E130EE66EBCDF8D
:10009000E552E552040E816E880EE66E130EE66E92
:1000A000B3DFE552E552020E816ED00EE66E070E0A
:0C00B000E66EAADFE552E552E4D712002C
:0400BC00060EF66EC8
:1000C000000EF76E000EF86E00010900F550656F26
:1000D0000900F550666F03E1656701D03DD0090066
:1000E000F550606F0900F550616F0900F550626FBF
:1000F00009000900F550E96E0900F550EA6E0900A3
:1001000009000900F550636F0900F550646F09009C
:100110000900F6CF67F0F7CF68F0F8CF69F060C05C
:10012000F6FF61C0F7FF62C0F8FF0001635302E110
:10013000645307E00900F550EE6E6307F8E26407C8
:10014000F9D767C0F6FF68C0F7FF69C0F8FF000184
:0A0150006507000E665BBFD71200C2
:06015A00000EF36E00EE42
:1001600000F0080E01D81200EA6002D0EE6AFCD757
:0A017000F350E9601200EE6AFCD7BC
:06017A0013EE00F023EE7D
:1001800000F0F86A059C5EEC00F0CBEC00F03FEC70
:0601900000F0FBD7120095
:02019600120055
:020000040030CA
:010001000CF2
:010003001EDE
:010006008178
:00000001FF
