:020000040000FA
:0600000032EF01F01200D6
:020006000000F8
:08000800D9CFE6FFE1CFD9FFDB
:10001000040EE126DE6ADD6ADECF00F0DDCF01F0FE
:10002000FD0EDBCF02F0FE0EDBCF03F00250005CD2
:10003000035001581AE2020EDB6A030EDB6A020E5D
:10004000DBCF00F0030EDBCF01F0A50E005C000E4D
:10005000015806E2020EDB2A030E01E3DB2AEFD78A
:10006000DF2A010E01E3DB2AD7D7040EE15C02E2AE
:10007000E16AE552E16EE552E7CFD9FF1200D9CF30
:10008000E6FFE1CFD9FF0E0EE1263F0EDF6EDE5216
:10009000060EDD6E5B0EF36E020EF3CFDBFF4F0E2E
:1000A000F36E030EF3CFDBFF660EF36E040EF3CF99
:1000B000DBFF6D0EF36E050EF3CFDBFF7D0EF36EEF
:1000C000060EF3CFDBFF070EF36EF3CFDBFF7F0EE1
:1000D000F36E080EF3CFDBFF6F0EF36E090EF3CF56
:1000E000DBFF936A956A816A836A0A0EDB6A0B0EEC
:1000F000DB6A0A0EDBCF00F00B0EDBCF01F0D890ED
:10010000015004E60A0E005C000E015841E20C0E9C
:10011000DB6A0D0EDB6A0C0EDBCF00F00D0EDBCFC1
:1001200001F0D890015004E60A0E005C000E015860
:1001300029E2D9CF00F0DACF01F00A0EDB5000241B
:10014000E96E0B0EDB500120EA6EEF50836ED9CFC3
:1001500000F0DACF01F00C0EDB500024E96E0D0E3A
:10016000DB500120EA6EEF50816EF40EE66E010E58
:10017000E66E4ADFE552E5520C0EDB2A0D0E01E376
:10018000DB2AC9D70A0EDB2A0B0E01E3DB2AB1D723
:10019000ACD70E0EE15C02E2E16AE552E16EE55297
:0601A000E7CFD9FF1200B9
:0A01A600060EF66E000EF76E000E56
:1001B000F86E00010900F550656F0900F550666F93
:1001C00003E1656701D03DD00900F550606F09007B
:1001D000F550616F0900F550626F09000900F55094
:1001E000E96E0900F550EA6E090009000900F550B2
:1001F000636F0900F550646F09000900F6CF67F0DE
:10020000F7CF68F0F8CF69F060C0F6FF61C0F7FF84
:1002100062C0F8FF0001635302E1645307E0090084
:10022000F550EE6E6307F8E26407F9D767C0F6FF92
:1002300068C0F7FF69C0F8FF00016507000E665B44
:04024000BFD7120012
:0C024400000EF36E00EE00F0080E01D872
:100250001200EA6002D0EE6AFCD7F350E9601200A7
:04026000EE6AFCD76F
:0C02640013EE00F023EE00F0F86A059C99
:10027000D3EC00F040EC01F03FEC00F0FBD71200B3
:0202800012006A
:020000040030CA
:010001000CF2
:010003001EDE
:010006008178
:00000001FF
