:020000040000FA
:0600000093EF08F012006E
:0610000093EF08F012005E
:0610080065EF08F0120084
:02102A000000C4
:04102C002A0EF66E24
:10103000100EF76E000EF86E00010900F550656F96
:101040000900F550666F03E1656701D03DD00900E6
:10105000F550606F0900F550616F0900F550626F3F
:1010600009000900F550E96E0900F550EA6E090023
:1010700009000900F550636F0900F550646F09001D
:101080000900F6CF67F0F7CF68F0F8CF69F060C0DD
:10109000F6FF61C0F7FF62C0F8FF0001635302E191
:1010A000645307E00900F550EE6E6307F8E2640749
:1010B000F9D767C0F6FF68C0F7FF69C0F8FF000105
:0A10C0006507000E665BBFD7120043
:0610CA00DACFE4FFE6525C
:1010D000F2A406D08170F2946D0ED76E840ED66E97
:1010E000E552E5CFDAFF11000F0EC16E93908190AB
:1010F000030ED56E6D0ED76E840ED66EF294F28A04
:06110000F28ED58EFFD730
:0A110600000EF36E00EE00F0080E7C
:1011100001D81200EA6002D0EE6AFCD7F350E96011
:061120001200EE6AFCD78C
:0A11260013EE00F023EE00F0F86A6B
:10113000019C16EC08F0A1EC08F074EC08F0FBD769
:0211400012009B
:02114200120099
:00000001FF
