:020000040000FA
:0600000008EF09F01200F8
:0610000008EF09F01200E8
:02102A000000C4
:04102C007AD8040E5C
:10103000E126DE6ADD6ADECF00F0DDCF01F0FD0ED5
:10104000DBCF02F0FE0EDBCF03F00250005C03505A
:1010500001581AE2020EDB6A030EDB6A020EDBCFD6
:1010600000F0030EDBCF01F0C60E005C020E01584B
:1010700006E2020EDB2A030EF1E3DB2AEFD7DF2ABA
:10108000010ED9E3DB2AD7D7040EE15C02E2E16A64
:10109000E552E16E4BD045D8FE0EDB50836E849056
:1010A0004CD00F0E50D8380E45D8010E43D80E0E36
:1010B00041D8060E3FD8800E9AEF08F032D8FE0EC7
:1010C000DB50836E848039D02CD822D80AE020D817
:1010D000E66EF4DFE552FD0EDB2AFE0EF6E3DB2AB8
:1010E000F4D724D00F0EC16E956A966ADADF800EAF
:1010F0000BD82C0EE66E120EE66EE6DFE552E552D8
:10110000FFD7050EA3EF08F0E66EC5DFE55212002B
:10111000FD0EDBCFF6FFFE0EDBCFF7FF0800F5502C
:101120001200D9CFE6FFE1CFD9FF1200E552E7CF99
:10113000D9FF1200E9DF81EF08F084928484E1DFB7
:101140008494DFDFF3D7E66EE66A70DFE552E5529E
:0211500012008B
:0E1152002A0EF66E100EF76E000EF86E0001FB
:101160000900F550656F0900F550666F03E165678A
:1011700001D03DD00900F550606F0900F550616F56
:101180000900F550626F09000900F550E96E090089
:10119000F550EA6E090009000900F550636F090077
:1011A000F550646F09000900F6CF67F0F7CF68F0DB
:1011B000F8CF69F060C0F6FF61C0F7FF62C0F8FFCA
:1011C0000001635302E1645307E00900F550EE6E3D
:1011D0006307F8E26407F9D767C0F6FF68C0F7FF56
:1011E00069C0F8FF00016507000E665BBFD71200FB
:1011F000000EF36E00EE00F0080E01D81200EA6057
:1012000002D0EE6AFCD7F350E9601200EE6AFCD718
:1012100013EE00F023EE00F0F86A059CA9EC08F04C
:0C1220001CEC09F072EC08F0FBD7120087
:04122C0048454C4C99
:081230004F20574F524C4400BF
:021238001200A2
:00000001FF
