:020000040000FA
:0600000066EF09F012009A
:02102A000000C4
:04102C00D9CFE6FF33
:10103000E1CFD9FF040EE126DE6ADD6ADECF00F0E3
:10104000DDCF01F0FD0EDBCF02F0FE0EDBCF03F0B3
:101050000250005C035001581AE2020EDB6A030ED4
:10106000DB6A020EDBCF00F0030EDBCF01F0B40E23
:10107000005C000E015806E2020EDB2A030E01E3BB
:10108000DB2AEFD7DF2A010E01E3DB2AD7D7040ED4
:10109000E15C02E2E16AE552E16EE552E7CFD9FF99
:1010A0001200D9CFE6FFE1CFD9FFFE0EDB50836EF1
:1010B000849084928484FA0EE66EE66AB7DFE55285
:1010C000E5528494FA0EE66EE66AB0DFE552E55228
:1010D000E552E7CFD9FF1200380EE66EE2DFE552A7
:1010E000640EE66EE66AA2DFE552E552010EE66E98
:1010F000D8DFE552640EE66EE66A98DFE552E55207
:101100000E0EE66ECEDFE552640EE66EE66A8EDF08
:10111000E552E552060EE66EC4DFE552640EE66E59
:10112000E66A84DFE552E552800EE66EBADFE552EC
:10113000640EE66EE66A7ADFE552E5521200D9CF18
:10114000E6FFE1CFD9FFFE0EDB50836E84808492F0
:101150008484FA0EE66EE66A69DFE552E55284940D
:10116000FA0EE66EE66A62DFE552E552E552E7CF37
:10117000D9FF1200D9CFE6FFE1CFD9FF0D0EE1264E
:10118000D9CFE9FFDACFEAFF480EEE6E450EEE6EDC
:101190004C0EEE6EEE6E4F0EEE6E200EEE6E570E95
:1011A000EE6E4F0EEE6E520EEE6E4C0EEE6E440E66
:1011B000EE6EEE6A0F0EC16E956A966A8DDF0C0EAA
:1011C000DB6A0B0EF36E0C0EDBCFF4FFF350F45C16
:1011D00013E2D9CF00F0DACF01F00C0EDB500F0193
:1011E0000024E96E000E0120EA6EEF50E66EA7DFE4
:1011F000E5520C0EDB2AE5D7FFD70D0EE15C02E2CB
:0E120000E16AE552E16EE552E7CFD9FF120038
:02120E002A0EA6
:10121000F66E100EF76E000EF86E00010900F55024
:10122000656F0900F550666F03E1656701D03DD039
:101230000900F550606F0900F550616F0900F55025
:10124000626F09000900F550E96E0900F550EA6E79
:10125000090009000900F550636F0900F550646F3B
:1012600009000900F6CF67F0F7CF68F0F8CF69F012
:1012700060C0F6FF61C0F7FF62C0F8FF0001635372
:1012800002E1645307E00900F550EE6E6307F8E2EF
:101290006407F9D767C0F6FF68C0F7FF69C0F8FFB9
:0C12A00000016507000E665BBFD712005E
:0412AC00000EF36ECF
:1012B00000EE00F0080E01D81200EA6002D0EE6ADB
:0C12C000FCD7F350E9601200EE6AFCD786
:0412CC0013EE00F02D
:1012D00023EE00F0F86A059C07EC09F074EC09F0C5
:0812E000BAEC08F0FBD7120084
:0212E8001200F2
:00000001FF
