:020000040000FA
:060000002DEF0AF01200D2
:061000002DEF0AF01200C2
:02102A000000C4
:04102C0008D9040ECD
:10103000E126DE6ADD6ADECF10F0DDCF11F0FD0EB5
:10104000DBCF12F0FE0EDBCF13F01250105C13500A
:10105000115815E2020EDB6A030EDB6A10D9B40EDA
:10106000105C000E115806E2020EDB2A030EF6E3B6
:10107000DB2AF4D7DF2A010EDEE3DB2ADCD7040EFD
:10108000E15C02E2E16AE552E16E0ED1D8D8FE0ED3
:10109000DB50836E8490C5D0D2D8FE0EDB50836EB9
:1010A0008480BFD0380EB9D8010EB7D80C0EB5D891
:1010B000060EB3D8800E0DEF09F0C1D8C5D808E0F0
:1010C000C3D8D9D8FD0EDB2AFE0EF8E3DB2AF6D70B
:1010D000EBD0B5D8020EE126C282C2B2FED7C45010
:1010E000DE6EDD6ADECF12F0DDCF13F012C013F03A
:1010F000126AC3501210DE6E13C0DDFFDECF10F097
:10110000DDCF11F010C0F3FF11C0F4FF020EE15C5F
:1011100002E2E16AE552E16EC7D091D8070EE126FE
:10112000010E926E956A966A0E0EC16E010EC26E27
:101130008A0EC06EB7DF800EBBD8810EE66E140E2D
:10114000E66EBBDFE552E552C4DFF3CFDEFFF4CF3E
:10115000DDFFDECF04F0DDCF05F0066A076AF40E8E
:10116000096E010E0A6E0B6A0C6AABEC09F000C046
:1011700004F001C005F002C006F003C007F00968E2
:10118000030E0A6E0B6A0C6AE3EC09F0020E04C04F
:10119000DBFF030E05C0DBFF72D8640E7DD806C0EE
:1011A00010F007C011F0300E1026000E1122040EB0
:1011B00040D806C010F007C011F00A0E0B6E0C6A82
:1011C00007EC0AF04AD8050E34D847D8060E10C0EE
:1011D000DBFFC00E6DD87A0EE66E140EE66E6DDF84
:1011E000E552E552040EDB50300802E0040E3ED812
:1011F000050E3CD8060E3AD8DF0E3DD8430E3BD83C
:10120000760EE66E140EE66E58DFE552E552F40EE9
:10121000E66E010EE66E0ADF95D74AD8320E46EF2B
:1012200009F084928484140E31D88494140E2ED83C
:101230003BD010C0DBFF23D80A0E4CEF09F0D9CF0A
:10124000E6FFE1CFD9FF1200FD0EDBCFF6FFFE0E69
:10125000DBCFF7FF0800F550120002C010F003C00A
:1012600011F0300E1026000E11221200DBCFE6FF27
:1012700013DFE5521200E66E0FDFE5521200020E98
:10128000DBCF10F0030EDBCF11F01200E66EE66A42
:10129000CDDEE552E55212000B6E0C6A10C006F06E
:1012A00011C007F007EF0AF0E552E7CFD9FF1200AF
:0812B000E66EECDEE5521200CF
:0812B8002A0EF66E100EF76E0F
:1012C000000EF86E00010900F550656F0900F55039
:1012D000666F03E1656701D03DD00900F550606F8E
:1012E0000900F550616F0900F550626F09000900AF
:1012F000F550E96E0900F550EA6E09000900090091
:10130000F550636F0900F550646F09000900F6CFCE
:1013100067F0F7CF68F0F8CF69F060C0F6FF61C002
:10132000F7FF62C0F8FF0001635302E1645307E076
:101330000900F550EE6E6307F8E26407F9D767C05D
:10134000F6FF68C0F7FF69C0F8FF00016507000EEF
:06135000665BBFD712002E
:0A13560004500902F3CF00F0F4CFB9
:1013600001F00A02F3500126000EF420026E045030
:101370000B02F3500226000EF420036E04500C0200
:10138000F350032605500902F3500126F4500222BF
:10139000000E032205500A02F3500226F4500322E5
:1013A00005500B02F350032606500902F3500226A3
:1013B000F450032206500A02F35003260750090294
:0613C000F35003261200A9
:0A13C600036A026A016A006A200E41
:1013D000E76ED890043605360636073600360136F5
:1013E000023603360950005C0A5001580B5002586F
:1013F0000C50035809E30950005E0A50015A0B5083
:0E140000025A0C50035A042AE72EE4D71200B9
:02140E00036A6F
:10141000026A100EE76ED89006360736023603369B
:101420000B50025C0C50035805E30B50025E0C504D
:0A143000035A062AE72EF0D7120037
:06143A00000EF36E00EE4F
:1014400000F0080E01D81200EA6002D0EE6AFCD764
:0A145000F350E9601200EE6AFCD7C9
:06145A0013EE00F023EE8A
:1014600000F0F86A0F9C5CEC09F047EC0AF08DEC98
:0614700008F0FBD712009A
:0A1476002020200054656D703A201C
:0E1480000054454D50204D4F4E49544F5200E0
:02148E0012004A
:00000001FF
